:100000000C9436000C945E000C945E000C945E0020
:100010000C945E000C945E000C945E000C945E00E8
:100020000C945E000C945E000C945E000C945E00D8
:100030000C945E000C945E000C945E000C945E00C8
:100040000C94DD020C945E000C94AB020C948502BF
:100050000C945E000C945E000C945E000C945E00A8
:100060000C945E000C945E002703F70411241FBE5D
:10007000CFEFD8E0DEBFCDBF11E0A0E0B1E0E4ED0E
:10008000FEE002C005900D92A833B107D9F722E037
:10009000A8E3B1E001C01D92A030B207E1F710E083
:1000A000C5E3D0E004C02197FE010E940B05C433D4
:1000B000D107C9F70E9471030C945D070C940000EE
:1000C0002FB7F89480913D0190913E01A0913F019E
:1000D000B09140012FBF8093490190934A01A093B2
:1000E0004B01B0934C01E0914101F0914201068037
:1000F000F781E02D81E491E0099597FF26C02FB7A5
:10010000F89480913D0190913E01A0913F01B09102
:1001100040012FBF4091490150914A0160914B012C
:1001200070914C01841B950BA60BB70B40914501B8
:1001300050914601609147017091480184179507DD
:10014000A607B70780F28FEF9FEF08950895CF922B
:10015000DF92EF92FF920F931F93CF93DF936C0187
:100160007A018B01C0E0D0E0CE15DF0589F0D8011F
:100170006D918D01D601ED91FC910190F081E02D02
:10018000C6010995892B11F47E0102C02196ECCF9E
:10019000C701DF91CF911F910F91FF90EF90DF90FA
:1001A000CF900895CF93DF93FC0144815581608106
:1001B000718181E491E00E94A700EC0142E050E0EF
:1001C00066E171E081E491E00E94A7008C0F9D1F21
:1001D000DF91CF910895FC01918D828D981761F088
:1001E000828DDF01A80FB11D5D968C91928D9F5F6E
:1001F0009F73928F90E008958FEF9FEF0895FC0119
:10020000918D828D981731F0828DE80FF11D858DCB
:1002100090E008958FEF9FEF0895FC01918D228D5E
:10022000892F90E0805C9F4F821B91098F739927E3
:10023000089581E491E00E940D0121E0892B09F4E9
:1002400020E0822F0895FC01848DDF01A80FB11DED
:10025000A35ABF4F2C91848D90E001968F739927FC
:10026000848FA689B7892C93A089B1898C918064E9
:100270008C93938D848D981306C00288F389E02DAA
:1002800080818F7D80830895EF92FF920F931F935B
:10029000CF93DF93EC0181E0888F9B8D8C8D981339
:1002A00005C0E889F989808185FD24C0F62E0B8D73
:1002B00010E00F5F1F4F0F731127E02E8C8DE81297
:1002C0000CC00FB607FCFACFE889F989808185FF59
:1002D000F5CFCE010E942301F1CF8B8DFE01E80FF7
:1002E000F11DE35AFF4FF0820B8FEA89FB89808171
:1002F000806207C0EE89FF896083E889F98980817F
:100300008064808381E090E0DF91CF911F910F9115
:10031000FF90EF900895CF93DF93EC01888D8823B1
:10032000C9F0EA89FB89808185FD05C0A889B98962
:100330008C9186FD0FC00FB607FCF5CF808185FF3D
:10034000F2CFA889B9898C9185FFEDCFCE010E94AB
:100350002301E7CFDF91CF91089580E090E0892BD2
:1003600029F00E94190181110C94000008953FB7F3
:10037000F8948091390190913A01A0913B01B0919C
:100380003C0126B5A89B05C02F3F19F00196A11D81
:10039000B11D3FBFBA2FA92F982F8827820F911D1B
:1003A000A11DB11DBC01CD0142E0660F771F881F62
:1003B000991F4A95D1F70895CF93DF93EC01888177
:1003C0009981009711F00E94A605198218821D825A
:1003D0001C821B821A82DF91CF910895FC018081DB
:1003E00091810C94A6050E9408070F931F93CF9349
:1003F000DF93EC0188819981009729F02A813B8164
:100400002617370788F48B016F5F7F4F0E943E06E7
:10041000009761F0998388831B830A832C813D8137
:10042000232B11F4FC01108281E001C080E0DF91F8
:10043000CF911F910F910895EF92FF920F931F9309
:10044000CF93DF93EC01198218821B821A821D82DE
:100450001C826115710521F18B01FB0101900020C7
:10046000E9F731977F01E61AF70AB7010E94F50113
:10047000811109C0CE01DF91CF911F910F91FF90A3
:10048000EF900C94DC01FD82EC82B80188819981A7
:10049000DF91CF911F910F91FF90EF900C941F0768
:1004A000DF91CF911F910F91FF90EF900895EF9200
:1004B000FF920F931F93CF93DF93FC01248135812B
:1004C0006115710511F480E019C041155105A9F0BD
:1004D0007B01EC018A01020F131FB8010E94F50194
:1004E000882389F3288139818C819D81B701820F0E
:1004F000931F0E941F071D830C8381E0DF91CF9122
:100500001F910F91FF90EF9008951F920F920FB6D9
:100510000F9211242F933F934F935F936F937F9389
:100520008F939F93AF93BF93EF93FF9381E491E0F9
:100530000E942301FF91EF91BF91AF919F918F9105
:100540007F916F915F914F913F912F910F900FBECF
:100550000F901F9018951F920F920FB60F921124B3
:100560002F938F939F93EF93FF93E0915101F0911D
:1005700052018081E0915701F091580182FD12C033
:10058000908180915A018F5F8F7320915B01821758
:1005900051F0E0915A01F0E0EF5BFE4F958F8093B0
:1005A0005A0101C08081FF91EF919F918F912F910E
:1005B0000F900FBE0F901F9018951F920F920FB6BD
:1005C0000F9211242F933F938F939F93AF93BF93D9
:1005D00080913D0190913E01A0913F01B091400179
:1005E0003091380123E0230F2D3720F40196A11D0F
:1005F000B11D05C026E8230F0296A11DB11D209351
:10060000380180933D0190933E01A0933F01B09348
:1006100040018091390190913A01A0913B01B09144
:100620003C010196A11DB11D8093390190933A01BF
:10063000A0933B01B0933C01BF91AF919F918F91EB
:100640003F912F910F900FBE0F901F901895E1E4EE
:10065000F1E01382128288EE93E0A0E0B0E08483A0
:100660009583A683B7838AE091E09183808385ECAC
:1006700090E09587848784EC90E09787868780EC6C
:1006800090E0918B808B81EC90E0938B828B82EC5D
:1006900090E0958B848B86EC90E0978B868B118E07
:1006A000128E138E148E69E171E086EF91E00E9444
:1006B0001C026EE171E080EF91E00E941C0264E296
:1006C00071E08AEE91E00E941C0268E271E084EE23
:1006D00091E00E941C0268E171E08EED91E00C94C3
:1006E0001C02CF93DF93CDB7DEB728970FB6F894EF
:1006F000DEBF0FBECDBF789484B5826084BD84B563
:10070000816084BD85B5826085BD85B5816085BD0C
:1007100080916E00816080936E00109281008091C4
:10072000810082608093810080918100816080934C
:100730008100809180008160809380008091B10071
:1007400084608093B1008091B00081608093B0009C
:1007500080917A00846080937A0080917A00826030
:1007600080937A0080917A00816080937A008091F2
:100770007A00806880937A001092C100E091510164
:10078000F091520182E08083E0914D01F0914E01A1
:100790001082E0914F01F09150018FEC8083109214
:1007A0005901E0915501F091560186E08083E09176
:1007B0005301F0915401808180618083E091530165
:1007C000F0915401808188608083E0915301F09121
:1007D0005401808180688083E0915301F09154013D
:1007E00080818F7D808381E491E00E940D01181645
:1007F00019060CF0CEC068E171E0CE0101960E94AE
:100800001C020E94600097FD0CC08F83188641E097
:1008100050E0BE01695F7F4FCE0101960E945702F2
:10082000F0CF8091DE019091DF010097C9F06981DE
:100830007A816115710591F04091E0015091E101DB
:100840002D813E814217530748F00E941F078D817A
:100850009E819093E3018093E20118C00E94A60557
:1008600089819A819093DF018093DE018B819C8145
:100870009093E1018093E0018D819E819093E3014B
:100880008093E2011A8219821C821B821E821D82C1
:10089000CE0101960E94EE01E090E201F090E301AA
:1008A0008091EE019091EF010091DE011091DF0146
:1008B000E816F90669F56091EA017091EB010115FE
:1008C000110519F061157105C9F46115710559F02B
:1008D000E114F104C1F0FB01208130E08827992761
:1008E000821B930B0EC00115110569F0E114F10490
:1008F00051F0F8019081892F90E003C0C8010E9457
:100900001607892B29F486EF91E00E94D20041C09E
:100910001A8219821C821B821E821D8201151105FA
:1009200099F0B701CE0101960E94F501811105C031
:10093000CE0101960E94DC0107C0FE82ED82B80163
:1009400089819A810E941F0742E050E064E371E0D0
:10095000CE0101960E945702882309F443C04091BA
:10096000F4015091F5016091F0017091F101CE0117
:1009700001960E945702811104C0CE0101960E9487
:10098000DC01CE0101960E94D200CE0101960E94A8
:10099000EE010E94B7016B017C0192E0892E912C3F
:1009A000A12CB12C0E94B701DC01CB018C199D094F
:1009B000AE09BF09883E9340A105B10598F3F8EE52
:1009C000CF0EF3E0DF1EE11CF11C8A9489288A28EF
:1009D0008B2829F0812C912C54018394E3CF0E9421
:1009E000AD0101CFCE0101960E94DC01B8CF8EEDA2
:1009F00091E00E94EE0184EE91E00E94EE018AEE09
:100A000091E00E94EE0180EF91E00E94EE0186EFFE
:100A100091E00C94EE01EE0FFF1F0590F491E02D94
:100A20000994CF93DF938230910510F482E090E037
:100A3000E091FE01F091FF0120E030E0C0E0D0E065
:100A4000309711F14081518148175907C0F048177C
:100A5000590761F482819381209719F09B838A83DF
:100A60002BC09093FF018093FE0126C02115310514
:100A700019F04217530718F49A01BE01DF01EF0184
:100A80000280F381E02DDCCF2115310509F1281B0F
:100A9000390B2430310590F412968D919C91139767
:100AA0006115710521F0FB019383828304C090934B
:100AB000FF018093FE01FD01329644C0FD01E20F6B
:100AC000F31F81939193225031092D933C933AC0A7
:100AD0002091FC013091FD01232B41F42091020172
:100AE000309103013093FD012093FC01209100011E
:100AF000309101012115310541F42DB73EB74091E8
:100B0000040150910501241B350BE091FC01F0918B
:100B1000FD01E217F307A0F42E1B3F0B281739073E
:100B200078F0AC014E5F5F4F2417350748F04E0F49
:100B30005F1F5093FD014093FC018193919302C08C
:100B4000E0E0F0E0CF01DF91CF9108950F931F9384
:100B5000CF93DF93009709F48CC0FC013297138286
:100B600012820091FE011091FF010115110581F41F
:100B700020813181820F931F2091FC013091FD0172
:100B80002817390779F5F093FD01E093FC0171C056
:100B9000D80140E050E0AE17BF0750F412962D91F7
:100BA0003C911397AD012115310509F1D901F3CF1E
:100BB0009D01DA013383228360817181860F971F43
:100BC0008217930769F4EC0128813981260F371FBA
:100BD0002E5F3F4F318320838A819B819383828361
:100BE000452B29F4F093FF01E093FE0142C01396D8
:100BF000FC93EE931297ED01499159919E01240FB8
:100C0000351FE217F30771F480819181840F951FDE
:100C1000029611969C938E938281938113969C9356
:100C20008E931297E0E0F0E0D80112968D919C919E
:100C30001397009719F0F8018C01F6CF8D919C91D4
:100C400098012E5F3F4F820F931F2091FC0130913E
:100C5000FD012817390769F4309729F41092FF0134
:100C60001092FE0102C0138212821093FD010093C4
:100C7000FC01DF91CF911F910F910895A0E0B0E0AA
:100C8000E4E4F6E00C942A07EC01009721F4CB0190
:100C90000E941105B8C0FC01E60FF71F9C0122500D
:100CA0003109E217F30708F4ACC0D9010D911C918A
:100CB000119706171707B0F00530110508F49FC00B
:100CC000C80104978617970708F499C002501109C4
:100CD000061B170B019311936D937C93CF010E9418
:100CE000A6058DC05B01A01AB10A4C01800E911EB1
:100CF000A091FE01B091FF0140E050E0E12CF12C09
:100D0000109709F44AC0A815B905D1F56D907C90EB
:100D10001197630182E0C80ED11CCA14DB0480F174
:100D2000A3014A195B096A0182E0C80ED11C129620
:100D3000BC9012971396AC91B5E0CB16D10440F05D
:100D4000B282A38351834083D9016D937C930AC0FF
:100D50000E5F1F4FC301800F911FF90191838083A4
:100D6000EB2DFA2FE114F10431F0D7011396FC9327
:100D7000EE93129744C0F093FF01E093FE013FC051
:100D80008D919C9111974817590708F4AC017D018A
:100D900012960D90BC91A02DB3CF8091FC01909143
:100DA000FD0188159905E1F446175707C8F48091AD
:100DB000000190910101009741F48DB79EB74091D9
:100DC000040150910501841B950BE817F907C8F43D
:100DD000F093FD01E093FC01F901718360830FC082
:100DE000CB010E9411057C01009759F0A801BE01BA
:100DF0000E940D07CE010E94A605C70104C0CE01C6
:100E000002C080E090E0CDB7DEB7EEE00C9446077C
:100E100081E090E0F8940C945D07FB01DC0102C0D6
:100E200001900D9241505040D8F70895FB01DC012C
:100E30008D91019080190110D9F3990B0895FB0150
:100E4000DC0101900D920020E1F708952F923F926E
:100E50004F925F926F927F928F929F92AF92BF92CA
:100E6000CF92DF92EF92FF920F931F93CF93DF9376
:100E7000CDB7DEB7CA1BDB0B0FB6F894DEBF0FBED3
:100E8000CDBF09942A88398848885F846E847D8420
:100E90008C849B84AA84B984C884DF80EE80FD8022
:100EA0000C811B81AA81B981CE0FD11D0FB6F89498
:100EB000DEBF0FBECDBFED01089510E0C5E3D0E069
:100EC00004C0FE010E940B052196C633D107C9F765
:040ED000F894FFCFC4
:100ED400000000028000000000004401A7000D0192
:100EE400EB00FF008B010D0A0054525545004641AA
:100EF4004C534500736F6D004553504E45544C4957
:080F040053540A003A200000DA
:107E0000112484B714BE81FFF0D085E080938100F7
:107E100082E08093C00088E18093C10086E0809377
:107E2000C20080E18093C4008EE0C9D0259A86E02C
:107E300020E33CEF91E0309385002093840096BBD3
:107E4000B09BFECF1D9AA8958150A9F7CC24DD24C4
:107E500088248394B5E0AB2EA1E19A2EF3E0BF2EE7
:107E6000A2D0813461F49FD0082FAFD0023811F036
:107E7000013811F484E001C083E08DD089C08234E0
:107E800011F484E103C0853419F485E0A6D080C0E4
:107E9000853579F488D0E82EFF2485D0082F10E0AE
:107EA000102F00270E291F29000F111F8ED06801E7
:107EB0006FC0863521F484E090D080E0DECF843638
:107EC00009F040C070D06FD0082F6DD080E0C81688
:107ED00080E7D80618F4F601B7BEE895C0E0D1E017
:107EE00062D089930C17E1F7F0E0CF16F0E7DF06D8
:107EF00018F0F601B7BEE89568D007B600FCFDCFD4
:107F0000A601A0E0B1E02C9130E011968C91119780
:107F100090E0982F8827822B932B1296FA010C0160
:107F200087BEE89511244E5F5F4FF1E0A038BF0790
:107F300051F7F601A7BEE89507B600FCFDCF97BE46
:107F4000E89526C08437B1F42ED02DD0F82E2BD052
:107F50003CD0F601EF2C8F010F5F1F4F84911BD097
:107F6000EA94F801C1F70894C11CD11CFA94CF0C13
:107F7000D11C0EC0853739F428D08EE10CD085E9AC
:107F80000AD08FE07ACF813511F488E018D01DD067
:107F900080E101D065CF982F8091C00085FFFCCF94
:107FA0009093C60008958091C00087FFFCCF809118
:107FB000C00084FD01C0A8958091C6000895E0E648
:107FC000F0E098E1908380830895EDDF803219F02E
:107FD00088E0F5DFFFCF84E1DECF1F93182FE3DFCA
:107FE0001150E9F7F2DF1F91089580E0E8DFEE27F6
:047FF000FF270994CA
:027FFE00040479
:0400000300007E007B
:00000001FF
